:100C1000000E1B7F7F1B0E0000040C187F7F1B0E35
:100C200000080C057F7F1E0CC00041221A7C7D1A33
:100C3000006061120A7E7F0800060E080B3E3E0B24
:100C400000030B080B3E3E0B00060E08093F3E0B4F
:100C5000000E137E7E1F0E0008137E7E121D0C00F8
:100C600009127E7F1013030009127E7F101C0C00F6
:100C7000000C157E7E170E000030380D7E7F1D089B
:100C8000C0C0301B7C7F0800000037F8FA34000039
:100C900000001B7C7C1A01000000091E7C7F1800EC
:100CA00000001B7C7C1B00000000091E7C7F1800DC
:100CB00000001B7C7C1B00000810167C7F100800C5
:100CC0000010137C7E1800000008137C7F101000B9
:100CD000000812FCFD3A0000000812FCFC22100083
:100CE000000061127C7F106000002011127C7E19D0
:100CF000000000310A7C7E0D00002011127C7E195C
:100D0000000000310A7C7E0D00002011127C7E194B
:100D1000000000310A7C7E0D00002011127C7E193B
:100D2000000000310A7C7E0DF9B8FA67FB04FB4B2A
:100D3000FBCFFC44FC79FCDCFD34FD82FDA6000009
:100D4000FD09010605030603050306030506010662
:100D50000B0C010600030103010300030106010659
:100D60000B0C010301030606050306030506010635
:100D70000B0C010600030103010300030106010639
:100D8000030C060C050C010601060B060006010605
:100D90000B060603060305030603050601060B0CF6
:100DA0000106000301030103000301060106010C13
:100DB0000B060106000301030103000301060106FF
:100DC000030C0A0C090C070C050605060A0C090C95
:100DD0000706050C070C0B060503050605060C06A1
:100DE0000C060C0608060906010605060506080C91
:100DF0000B0C0B0C0B06010301060B0C0106050680
:100E00000506080C0B0C0B0C0B06010301060B0C62
:100E10000B0C010605060506080C0B0C0B0C0B064B
:100E2000010301060B0C010605060506080C0B0C58
:100E30000B0C0B06010301060B0C0B0C0503050341
:100E40000803050305030503050305030503040360
:100E50000506050605030503080305030503050349
:0C0E600005030503050304030506050651
:10158A0001710008470A0A0A0A0A0A0A0A08370001
:10159A0000000000000000086900000000000000D0
:1015AA00001023FEFDFBF7EFDFBF7F7EBDDBE7E721
:1015BA00DBBD7E0361235955023F0190017201018F
:1015CA007302016800044141C80000014F1E014630
:0415DA0014012200D6
:10151C0030096A30026774422567F582740D3566AE
:10152C00F583E493756400F56574432567F582745F
:10153C000D3566F583E493F55274022567F567E47F
:10154C003566F566D3E56794FEE56694004005E4E0
:10155C00F566F567E56525E0FFE56433FE74282F35
:10156C00F582740D3EF583E493F55F740193F56099
:0E157C00E55FF58D85608BC202D2CAD28E2249
:0A1A9A00E4F566F567C28EC2CA22A9
:05000300C28EC2CA22FA
:051AA400D28ED2CA221F
:1017FF00758911E4F5C9F5C8758A18758CFCF5CD96
:10180F00F5CCC28DD28CD2A9D2ABD2ADD2AFF56608
:07181F00F567D202C290221E
:10199800C28DC28CC2A9C2ABC2ADC2AFE4F566F5B6
:0B19A80067C202C290F58075A0FF220C
:1009950030050AE5556003020C0F75550112162D39
:1009A5008F56E5546556FF5556F551E556F45FF5F6
:1009B50059855654E55114B409004003020C0F90B3
:1009C50009D275F003A4C58325F0C58373020BB165
:1009D500020BDC020BEB020BFC020B8E020AE5029A
:1009E5000A9E0209FB0209ED200502B20C3005033F
:1009F500121998B2052220071DE5716403701715B9
:100A050072E57270037572047B007A007972750F56
:100A150001E4FD121715300723E5716403701D7499
:100A25009C2540F54074FF353FF53FC3E540949064
:100A3500E53F94015006753F047540B0AF717E00E7
:100A4500EF64017002B20AEF64024E702430042193
:100A550020081E1546C3E5469414748094805003FF
:100A65007546147B007A007946750F017D021217D1
:100A750015E57164026003020C0F200403020C0FDC
:100A8500200803020C0F154FC3E54F94147480948E
:100A9500805003754F14020B80E545640160030225
:100AA5000C0F20031B0571E57164047002F571E5F7
:100AB500717006F55EC208D207300104C290C2010A
:100AC500AF717E00EF64037002B207EF64034E60FE
:100AD50003020C0F200403020C0F757102B20822E9
:100AE500200724E5716403701E0572C3E572940541
:100AF5007480948040037572017B007A0079727569
:100B05000F01E4FD121715300722E5716403701C0F
:100B150074642540F540E4353FF53FD3E54094B096
:100B2500E53F94044006753F01754090E571640208
:100B3500702430042120081E0546D3E5469423740D
:100B450080948040037546237B007A007946750FB3
:100B5500017D02121715E57164026003020C0F2076
:100B65000403020C0F200803020C0F054FD3E54FB9
:100B75009423748094804003754F237B007A007919
:100B85004F750F017D01021715E5456401700EF5DE
:100B950071F55EC204C208D207C20AC2030545E563
:100BA5004564037002F5453001608026AF717E0013
:100BB500EF6401700A055EE55E64047002F55EEFA0
:100BC50064024E7002B204E57164037002B2033030
:100BD5000138C290C20122E5456402702D20090347
:100BE500121A9AB209223009212000051200038049
:100BF50003121AA4B20022E5456401700DE5716483
:0B0C0500017007300102C290B2012212
:10002E00E55060030204E1755001E57114604C1453
:10003E0070030202A31470030203CF2403600302B1
:10004E0004E17B007A007961121901E561C4540F55
:10005E00F547E561540FF54875490DE562C4540F37
:10006E00F54AE562540FF54B754C0DE563C4540F1C
:10007E00F54DE563540FF54E0204DCE55E600302B8
:10008E00015D7F9412149D8F5D8E5C8D5B8C5AE4A6
:10009E00FFFEFD7C40AB5DAA5CA95BA85A1205DA97
:1000AE001208378F7375470F300A237E00D3EF94F3
:1000BE00037480948050047F148015D3EF9406EE61
:1000CE006480948040047F1580027F0D80027F0A39
:1000DE008F48300A14AF5DAE5CAD5BAC5A12083778
:1000EE00EF75F00A84AFF080027F0A8F49300A1E46
:1000FE00E4FFFE7D207C41AB5DAA5CA95BA85A1291
:10010E0005DA120837EF75F00A84AFF080027F0A25
:10011E008F4A300A1EE4FFFE7DC87C42AB5DAA5CAE
:10012E00A95BA85A1205DA120837EF75F00A84AFE8
:10013E00F080027F0A8F4B754C0D85734D754E0DF9
:10014E00300A047F0180027F008F39E4F53C22E5FE
:10015E005E640170477FA412149D8F5D8E5C8D5B73
:10016E008C5AE4FFFEFD7C40AB5DAA5CA95BA85AED
:10017E001205DA1208378F73754711300A047F0D96
:10018E0080027F0A8F48300A04AF7380027F0A8F85
:10019E0049300A047F0D804F7F0A804BE55E640272
:1001AE00704C7FD412149D8F5D8E5C8D5B8C5AE4E7
:1001BE00FFFEFD7C40AB5DAA5CA95BA85A1205DA76
:1001CE001208378F7375470B300A047F0D80027F3C
:1001DE000A8F48300A04AF7380027F0A8F49300AB3
:1001EE00047F0D80027F0A8F4A754B0A8053E55EAD
:1001FE00640360030204E17FE412149D8F5D8E5C44
:10020E008D5B8C5AE4FFFEFD7C40AB5DAA5CA95B66
:10021E00A85A1205DA1208378F7375470FE4F5489E
:10022E00300A047F0D80027F0A8F49300A04AF73B3
:10023E0080027F0A8F4A300A047F0D80027F0A8F68
:10024E004BAF5DAE5CAD5BAC5A120837EF75F00A82
:10025E008485F04CE4FFFE7D207C41AB5DAA5CA959
:10026E005BA85A1205DA120837EF75F00A8485F08A
:10027E004DE4FFFE7DC87C42AB5DAA5CA95BA85A2B
:10028E001205DA120837EF75F00A8485F04EE4F5A0
:10029E0039753C012230040302032F12000E12178F
:1002AE00D48F448E438D428C4175470B75480A7529
:1002BE00490A754A0AE4FBFA792078411206E312DC
:1002CE000837EF75F00A8485F04BAF44AE43AD426C
:1002DE00AC41120837EF75F00A8485F04CE4FFFE4E
:1002EE007D207C41AB44AA43A942A8411205DA12F3
:1002FE0008377C007D0A1209328D4DE4FFFE7DC861
:10030E007C42AB44AA43A942A8411205DA1208372F
:10031E007C007D0A1209328D4EE4F539753C018060
:10032E006975470C75480D2008073006047F0A8052
:10033E000CE54675F00A8475F00A84AFF08F4920FB
:10034E0008073006047F0A8008E54675F00A84AF78
:10035E00F08F4A754B0D3008073006047F0A800C6B
:10036E00E54F75F00A8475F00A84AFF08F4C3008B3
:10037E00073006047F0A8008E54F75F00A84AFF057
:10038E008F4D754E0DE4F539F53CAC4FE412080374
:10039E00AB44AA43A942A84112078060074005D288
:1003AE000BD20122AC46E4120803AB44AA43A94285
:1003BE00A8411207805005D20BC20122C20BC20106
:1003CE002220030302047675470D2007073006042A
:1003DE007F0A8002AF728F4875490D754A0A300741
:1003EE00073006047F0A8023C3E54094E8E53F9476
:1003FE00034016AE3FAF407C037DE81209327C000D
:10040E007D0A120932AF0580027F0A8F4B30070733
:10041E003006047F0A8014AE3FAF407C007D64122C
:10042E0009327C007D0A120932AF058F4C30070766
:10043E003006047F0A8014AE3FAF407C007D0A1266
:10044E0009327C007D0A120932AF058F4D30070745
:10045E003006047F0A800DAE3FAF407C007D0A124D
:10046E000932AF058F4E806675470D857248754906
:10047E000D754A0AC3E54094E8E53F94034016AE75
:10048E003FAF407C037DE81209327C007D0A1209E1
:10049E0032AF0580027F0A8F4BAE3FAF407C007DAE
:1004AE00641209327C007D0A1209328D4CAE3FAFC8
:1004BE00407C007D0A1209327C007D0A1209328DC1
:1004CE004DAE3FAF407C007D0A1209328D4EE4F5F1
:0404DE0039F53C228E
:10129A00E57224FE603E14606C147003021350243D
:1012AA00036003021380E4F522AF22EF3395E0FED8
:1012BA00C3EF9408EE648094804003021380E52211
:1012CA00B553047F0180027F0074692522F8A607BE
:1012DA00052280D5E4F522AF22EF3395E0FEC3EF75
:1012EA009408EE648094804003021380C3740795C7
:1012FA0022B553047F0180027F0074692522F8A673
:10130A0007052280D2E4F522AF22EF3395E0FEC32F
:10131A00EF9404EE64809480505CEF2404FFE43E72
:10132A00FE7C00EFB55308ECB506047F0180027F0E
:10133A0000C3740795222469F8EFF674692522F828
:10134A00A607052280C2752204AF22EF3395E0C3B7
:10135A00648094804020E522B553047F0180027F97
:10136A0000C3740795222469F8EFF674692522F8F8
:06137A00A607152280D336
:01138000224A
:0D1A8C00007F067EB47D1ADDFEDEFCDFFA71
:011A9900222A
:101A6C00AE071FEE600A7E027DEFDDFEDEFC80F02D
:011A7C002247
:10138100E4F566F56774232567F8E6F5A07F1E127C
:101391001A6C0567E56770020566C39408E56694F3
:1013A1000040E2E4F566F567C3740795672423F806
:1013B100E6F5A07F32121A6C0567E56770020566D3
:1013C100C39408E566940040DFE4F566F567742B85
:1013D1002567F8E6F5A07F50121A6C0567E567707E
:1013E100020566C39404E566940040E2E4F566F5FF
:1013F10067742F2567F8E6F5A07F64121A6C0567FC
:10140100E56770020566C39404E566940040E22234
:10105000E4F509F50AC290F580121AA97B007A001E
:101060007972750F01E4FD1215EB121A8C7B007A70
:1010700000794F750F017D011215EB7B007A007925
:1010800046750F017D021215EB7B007A0079611223
:1010900017777F9412149D8F5D8E5C8D5B8C5A1236
:1010A000000E121A8C1209953005FA300C08121332
:1010B000811217FFC20CE5456401700A12002E3040
:1010C0000BE3B2A580DFE5456402707375470A75CE
:1010D000480A75490A754A0A754B0A754C0A754DD6
:1010E0000A754E0AF53C12151CE4F508C3E5089490
:1010F00008748094805020E5082509FFE433FE74CD
:10110000102FF582740C3EF583E493FD7C00AF084C
:101110001218BD050880D5050AD3E50A9419748014
:1011200094804081E4F50A74082509F509D39410E8
:10113000748094A750030210A5E4F5090210A57568
:10114000470A75480A75490A754A0A754B0A754C6B
:101150000A754D0A754E0AE4F53CFFFEFD7C40AB76
:101160005DAA5CA95BA85A1205DA1208378F737F53
:101170009412149D8F5D8E5C8D5B8C5A12129A02B4
:0211800010A5B8
:03000B00020E6C76
:100E6C00C0E0C0F0C083C082C0D075D000C000C04C
:100E7C0001C002C003C004C005C006C007758A18B3
:100E8C00758CFC0555E555640A7002F5550550E561
:100E9C005064C87002F550E54564016003020F818F
:100EAC000557E55764087002F55774472557F8E65F
:100EBC00FD7C0074372557F8E6FB7A00AF57121704
:100ECC00A6AF717E00C3EF94017480948040190525
:100EDC0034E53470020533FDAC33BC010BBD900816
:100EEC00753300753400B206200103021035055825
:100EFC00EF64014E7020E55E701CE558C39573508D
:100F0C0005D290021035C3E558940A748094805031
:100F1C005EC290021035E57164026003021035ACBC
:100F2C004F120803A804A905AA06AB07AF44AE43A9
:100F3C00AD42AC411204E5C004C005C006C007AC0C
:100F4C0058E4120803A804A905AA06AB07D007D0D9
:100F5C0006D005D0041207805005D290021035C37C
:100F6C00E558940A748094805005C290021035752F
:100F7C005800021035E54560030210357469255799
:100F8C00F8E6FD7C00AF571217470536E5367002C0
:100F9C000535C39540E535953F402A0553E5536427
:100FAC0008701CF5530572E57264057003757201C7
:100FBC00AF72EF64036005EF64047003755304753E
:100FCC003500753600756800C3E568940874809424
:100FDC00805056E5536568704C0558E558C39573B9
:100FEC005030AF727E00EF640170047423801BEFED
:100FFC0064024E7009C3740795532423800EE57266
:10100C006403700474278002742B2553F8E6F5A052
:10101C008013C3E558940A74809480500575A0FF22
:10102C0080037558000568809FD007D006D005D086
:10103C0004D003D002D001D000D0D0D082D083D045
:04104C00F0D0E032CE
:03001B00021A2E98
:101A2E00C0E0E55FF58D85608B200204B2A58002D3
:051A3E00C28ED0E03271
:03002B00021A4373
:101A4300C0E075CB3C75CAB01552E5527002D202A4
:051A5300C2CFD0E0321B
:10118200000E1B7F7F1B0E0000040C187F7F1B0EBE
:1011920000080C057F7F1E0CC00041221A7C7D1ABC
:1011A200006061120A7E7F0800060E080B3E3E0BAD
:1011B20000030B080B3E3E0B00060E08093F3E0BD8
:1011C200000E137E7E1F0E0008137E7E121D0C0081
:1011D20009127E7F1013030009127E7F101C0C007F
:1011E200000C157E7E170E000030380D7E7F1D0824
:1011F200C0C0301B7C7F0800000037F8FA340000C2
:1012020000001B7C7C1A01000000091E7C7F180074
:1012120000001B7C7C1B00000000091E7C7F180064
:1012220000001B7C7C1B00000810167C7F1008004D
:101232000010137C7E1800000008137C7F10100041
:10124200000812FCFD3A0000000812FCFC2210000B
:10125200000061127C7F106000002011127C7E1958
:10126200000000310A7C7E0D00002011127C7E19E4
:10127200000000310A7C7E0D00002011127C7E19D4
:10128200000000310A7C7E0D00002011127C7E19C4
:08129200000000310A7C7E0D12
:0A19E700EF1FAC0670011E4C600EED
:0C19F100750B02750CC7D50CFDD50BFA68
:0319FD0080E8225D
:0216AA00AD078A
:1016AC00E4FBEBC394087480948050237E00748018
:1016BC00A803088006CEA2E713CE13D8F8FFEDF5E9
:1016CC0082EF558224FF92B4D2B6C2B60B80D3D22D
:0316DC00B5C2B5DF
:0116DF0022E8
:1018BD00AA07AF051216AAAF02A807748008800206
:1018CD00C313D8FCF4F5807F017E001219E77580F3
:0218DD00FF22E8
:051AA900C2B6C2B52227
:1019B300D2B7C2B77FF7DFFED2B77F20DFFEA2B771
:0919C300E433FE7FF7DFFEAF06FE
:0119CC0022F8
:101A1800C2AFC2B77E04DEFEEF24FF92B77E18DEA7
:051A2800FED2B7D2AFB1
:011A2D002296
:10196000C2AFC2B77F02DFFED2B77F02DFFEA2B7EF
:0B197000E433FE7F18DFFED2AFAF06AD
:01197B002249
:0218DF00AD0753
:1018E100E4FCECC39408748094805013A804740140
:0F18F100088002C333D8FC5DFF121A180C80E385
:0119000022C4
:10184D00E4FDFCECC394087480948050161219606A
:10185D00EF600DA8047401088002C333D8FC420563
:05186D000C80E0AF0556
:011872002253
:0D000E001219B37FCC1218DF7F440218DFF7
:1017D4001219B37FCC1218DF7FBE1218DF12184D16
:1017E4008F0B12184DEFFEE50BFFFDAC06EC120754
:0B17F400FEE4FBFA798078410206E376
:10197C00E4FEEEC3940874809480500FC2B6EF134B
:0B198C0092B4EFC313FFD2B60E80E749
:01199700222D
:101A5800C2B500C2B600D2B50012197CAF05121982
:041A68007CC2B52265
:10166D00E4FDC2B500C2B600D2B50012197CE4FF8C
:10167D00EFC39408748094805011C2B6EDC313FD6E
:10168D0030B403430580D2B60F80E5C2B500C2B6B3
:0C169D0000D2B600C2B400D2B400AF0509
:0116A900221E
:10177700E4FD7F8E121A581208B8FD7F84121A589A
:101787009000011208D1FD7F82121A5890000212B0
:0F17970008D1FD7F80121A587D807F8E021A586C
:101901007F8512166DEF1208FE7F8312166D90000F
:1019110001EF1209107F8112166D900002EF02098A
:0119210010B5
:10162D00E4FF20B1027F0520B0027F0620B2027FC9
:10163D000720B3027F08D296D295D294C2972093F9
:10164D00027F012092027F022091027F03D297D266
:0F165D0095D294C2962093027F042092027F09B7
:01166C00225B
:0C15DE000112000113FF0110000111FFB9
:10174700ED4C600FA8077401088002C333D8FC4230
:1017570010800EA8077401088002C333D8FCF45226
:0F17670010E51065116008E510F4F5A08510116C
:011776002250
:101942003F065B4F666D7D077F6F00397340863EB1
:0E1952008838898E08011C1814100C08040037
:1017A600EF90195893FFE5A054E3FEEF4EF5A0E441
:1017B600F58074422DF58274193CF583E493FFF5A8
:0E17C60080EB4A6006EF4480F580228F80227F
:02149D00A9079D
:10149F00E4FFFEC2B6C2B5FDEDC39408748094801C
:1014AF005016E9C4131313540124FF92B4E925E035
:1014BF00F9C2B6D2B60D80E07D06EDD394007480EC
:1014CF00948040031D80F3D2B60000C2B60000E442
:1014DF00FDEDC3940C748094805014EF25E0FFEE63
:1014EF0033FED2B6C2B6A2B7E43342070D80E2D2C2
:1014FF00B5AD07AC06E41207FEE4FBFA7980784538
:0D150F001206E3E4FBFA79A078400205DA49
:0419CD00D2A17F051F
:1019D100000000000000000000000000000000AE58
:0619E100071FEE70EB226F
:0F1A7D00D2A01219CDC2A07F051219D1C2A12289
:0C001E00C2A01219CDD2A07F050219D19A
:0216E000AD0754
:1016E200E4FCECC39408748094805024C2A17F056A
:1016F2001219D1ED30E704D2A08002C2A07F0512F8
:1017020019D1D2A1ED25E0FD7F051219D10C80D2AD
:02171200C2A172
:0117140022B2
:10187300E4FCECC394087480948050171219CDEDE6
:1018830025E0FD30A003430501C2A17F051219D154
:051893000C80DFAF0531
:01189800222D
:10189900AB05121A7D7FA01216E01218ABAF031226
:0218A90016E047
:1018AB001219CDA2A0E433FDC2A17F051219D1AF4D
:0118BB000527
:0118BC002209
:101A0000C2A1EF24FF92A07F051219D11219CDC2F5
:081A1000A1D2A07F050219D14B
:02182600AB070E
:10182800E4FD121A7D7F901218A0121A7D7F911282
:1018380016E01218AB121873AD077F01121A0012C6
:04184800001EAF05CA
:01184C002279
:10192200AB07121A7D7F901216E01218AB7F41129C
:1019320016E01218AB121A7DAF031216E002001E57
:101715008B0B8A0C890D121899AF0F150FEF601FEF
:10172500AB0B050DE50DAA0C7002050C14F912089A
:10173500B8FF1216E01218AB7FC81219D180DA0271
:02174500001E84
:1015EB008B0B8A0C890D121899121A7D7FA112167A
:1015FB00E01218ABAF0F150FEF6024121873AB0B83
:10160B00050DE50DAA0C7002050C14F9EF1208FE7E
:10161B00E50F6004E4FF80027F01121A0080D502FF
:02162B00001E9F
:1004E2000208A3E86480F8E933E83360110460F09D
:1004F200ED33EC337009E8FCE9FDEAFEEBFF220480
:1005020060DED3EB9FEA9EE99DE8C2E78CF0C2F77A
:1005120095F0400CE8CCF8E9CDF9EACEFAEBCFFB46
:1005220012086E85D0F05804700320D5B3E8047029
:10053200075002B2D50208AD92D5EC0460F7E4CCC4
:10054200C0E0C398F8603B94186008400DD0E0FB0F
:10055200020885E4FBFAC9FC8028E830E406E4C915
:10056200FBE4CAFCE830E305E4C9CACBFCE8540763
:100572006010F8C3E913F9EA13FAEB13FBEC13FC6E
:10058200D8F130F52FC3E49CFCEF9BFFEE9AFEED11
:1005920099FDD0E0FBEF4E4D4C701222DB030208B6
:1005A200AAEC2CFCEF33FFEE33FEED33FDED30E72A
:1005B200EB020885EF2BFFEE3AFEED39FDD0E0FBB2
:1005C20050130BBB00030208ADED13FDEE13FEEF5B
:0805D20013FFEC13FC02088585
:1005DA00EC4D6011E8497017ED33EC3304600DE41B
:1005EA00FCFFFEFD22E933E8330470F80208A31287
:1005FA00086E58046009E4CC248150062850090288
:10060A0008AD2840030208AAC0E0EB4A7044B9804A
:10061A0006D0E0FB020899EF4E701CBD8008EBFF84
:10062A00EAFEE9FD80EBE98DF0A4FEE5F00206C3DF
:10063A00E9CDF9EAFEEBFFEF89F0A4FCE5F0CE89FB
:10064A00F0A42EFFE435F0CD89F0A42DFEE435F0B8
:10065A008067EF4E7005BD80D780C3EF8BF0A4ACE6
:10066A00F0EE8BF0A42CFCE435F0F8EF8AF0A42C21
:10067A00E5F038FCE433CB8DF0A42CFCE5F03BF834
:10068A00EE8AF0A42CFCE5F038F8E433CF89F0A424
:10069A002CFCE5F038CF3400CE89F0A42FFFE5F02A
:1006AA003EFEE433C98DF0A42EFEE5F039CD8AF082
:1006BA00A42FFFE5F03EFEE43DFD33D0E0FB5007FA
:1006CA000BBB000F0208ADEC2CFCEF33FFEE33FE40
:0606DA00ED33FD0208856E
:1006E0000208ADEC5D046005E8590470030208A33C
:1006F00012086E580460F6EC4860F2EC7004FDFEDF
:10070000FF22C860DB2481C85009C39860025006EC
:100710000208AA9850CAF582E9294B4A7005AB82B3
:1007200002089975F0007C1A7880C3EF9BEE9AED71
:1007300099400DC3EF9BFFEE9AFEED99FDE842F064
:10074000DC23ACF0D0E0FFD0E0FED0E0FDAB8220B7
:10075000E7101BEB60BAEC2CFCEF33FFEE33FEED41
:1007600033FD020885E803F830E705C0F075F000B6
:10077000EF2FFFEE33FEED33FD40B830E7C280AA25
:1007800074F8CC6480CCC86480C8F58204604FC320
:10079000EB9FF5F0EA9E42F0E99D42F0E89C45F0BF
:1007A000603C501DE5825FFFE582D313CB5BCBF449
:1007B0002B5582FB50280ABA002409B90020088072
:1007C0001DE5825BFBE582D313CF5FCFF4C3132F0C
:1007D0005582FF50090EBE00050DBD00010CC3EB94
:1007E0009FF5F0EA9E42F0E99D42F0E89C45F060FA
:0907F00007CC4820E701B3EC221C
:1007F90075F020800E75F010800575F0087D007E7B
:10080900007F003392D530D503120987EC334010AD
:10081900EF33FFEE33FEED33FDEC33FCD5F0ED2283
:0E082900E5F0247EA2D513CC92E7CDCEFF22BF
:10083700EDD2E7CD33EC3392D524814006E4FFFEB9
:10084700FDFC22FCE4CFCECDCC24E0501174FF8018
:10085700EDC3CC13CCCD13CDCE13CECF13CF0470B5
:07086700F030D5DE02098725
:10086E00E9D2E7C933E833F892D5EDD2E7CD33ECD0
:07087E0033FC5002B2D52249
:10088500EC30E7100FBF000C0EBE00080DBD0004D4
:100895000BEB6014A2D5EB13FCED92E7FD2274FF80
:1008A500FCFDFEFF22E480F8A2D574FF13FC7D80D9
:0308B500E480EFED
:03000000021411D6
:0C141100787FE4F6D8FD75817302145852
:1008B800BB010689828A83E0225002E722BBFE023E
:0908C800E32289828A83E4932271
:1008D100BB010CE58229F582E5833AF583E02250DC
:1008E10006E92582F8E622BBFE06E92582F8E22226
:0D08F100E58229F582E5833AF583E4932240
:1008FE00BB010689828A83F0225002F722BBFE01D9
:02090E00F322D2
:10091000F8BB010DE58229F582E5833AF583E8F01D
:10092000225006E92582C8F622BBFE05E92582C8C9
:02093000F222B1
:10093200BC000BBE0029EF8DF084FFADF022E4CCA9
:10094200F875F008EF2FFFEE33FEEC33FCEE9DEC72
:10095200984005FCEE9DFE0FD5F0E9E4CEFD22EDB8
:10096200F8F5F0EE8420D21CFEADF075F008EF2F02
:10097200FFED33FD4007985006D5F0F222C398FDF3
:050982000FD5F0EA2290
:0E098700C3E49FFFE49EFEE49DFDE49CFC2281
:10141D00021050E493A3F8E493A34003F68001F285
:10142D0008DFF48029E493A3F85407240CC8C333D0
:10143D00C4540F4420C8834004F456800146F6DF9F
:10144D00E4800B010204081020408090158AE47E90
:10145D00019360BCA3FF543F30E509541FFEE49394
:10146D00A360010ECF54C025E060A840B8E493A35B
:10147D00FAE493A3F8E493A3C8C582C8CAC583CA86
:10148D00F0A3C8C582C8CAC583CADFE9DEE780BE3E
:0115EA000000
:00000001FF
